{
  "contractName": "ConvertLib",
  "abi": [
    {
      "constant": false,
      "inputs": [
        {
          "name": "amount",
          "type": "uint256"
        },
        {
          "name": "conversionRate",
          "type": "uint256"
        }
      ],
      "name": "convert",
      "outputs": [
        {
          "name": "convertedAmount",
          "type": "uint256"
        }
      ],
      "payable": false,
      "stateMutability": "nonpayable",
      "type": "function"
    }
  ],
  "bytecode": "0x60dc61002f600b82828239805160001a6073146000811461001f57610021565bfe5b5030600052607381538281f30073000000000000000000000000000000000000000030146080604052600436106056576000357c0100000000000000000000000000000000000000000000000000000000900463ffffffff16806396e4ee3d14605b575b600080fd5b818015606657600080fd5b50608d600480360381019080803590602001909291908035906020019092919050505060a3565b6040518082815260200191505060405180910390f35b60008183029050929150505600a165627a7a7230582094c8c99483ce7b2dfc5855da36f4d3263c68b96629b8fe210c0ad6b9d7cabd280029",
  "source": "pragma solidity ^0.4.2;\n\nlibrary ConvertLib{\n\tfunction convert(uint amount,uint conversionRate) returns (uint convertedAmount)\n\t{\n\t\treturn amount * conversionRate;\n\t}\n}\n",
  "sourcePath": "/home/rpqb-desk-003/Documents/arjun/sample code/Aidant working code/contracts/ConvertLib.sol",
  "compiler": {
    "name": "solc",
    "version": "0.4.23+commit.124ca40d.Emscripten.clang"
  },
  "schemaVersion": "2.0.0",
  "updatedAt": "2018-07-12T14:58:00.019Z"
}